:100000000C9446000C9450000C9450000C9450003A
:100010000C9450000C9450000C9450000C94500020
:100020000C9450000C9450000C9450000C94500010
:100030000C9450000C9450000C9450000C94500000
:100040000C9450000C9450000C9450000C945000F0
:100050000C9450000C9450000C9450000C945000E0
:100060000C9450000C9450000C9450000C945000D0
:100070000C9450000C9450000C9450000C945000C0
:100080000C9450000C9450000C94500011241FBE8E
:10009000CFEFD0E1DEBFCDBF0E9452000C948F00A5
:1000A0000C940000DF93CF93CDB7DEB728970FB63F
:1000B000F894DEBF0FBECDBF8FEF8ABB81E08BBB54
:1000C00021E019821A821B821C8216C08D819E81BA
:1000D000AF81B8850196A11DB11D8D839E83AF832D
:1000E000B88789819A81AB81BC810196A11DB11D20
:1000F00089839A83AB83BC8389819A81AB81BC81DC
:1001000081343DE0930733E0A30730E0B307F0F21A
:1001100027FD02C0220F01C021E02BBBD2CFF894F3
:02012000FFCF0F
:00000001FF
