:100000000C9446000C9450000C9450000C9450003A
:100010000C9450000C9450000C9450000C94500020
:100020000C9450000C9450000C9450000C94500010
:100030000C9450000C9450000C9450000C94500000
:100040000C9450000C9450000C9450000C945000F0
:100050000C9450000C9450000C9450000C945000E0
:100060000C9450000C9450000C9450000C945000D0
:100070000C9450000C9450000C9450000C945000C0
:100080000C9450000C9450000C94500011241FBE8E
:10009000CFEFD0E1DEBFCDBF0E9452000C94D10063
:1000A0000C940000DF93CF93CDB7DEB728970FB63F
:1000B000F894DEBF0FBECDBF8FEF8ABB88E18BBB4C
:1000C00048E050E020E130E019821A821B821C8255
:1000D0001D821E821F82188660E019821A821B828E
:1000E0001C8216C08D819E81AF81B8850196A11DAD
:1000F000B11D8D839E83AF83B88789819A81AB813F
:10010000BC810196A11DB11D89839A83AB83BC83F9
:1001100089819A81AB81BC8181347DE0970773E04E
:10012000A70770E0B707F0F2220F331F56954795E7
:10013000842F820F8BBB6F5F633079F660E019828A
:100140001A821B821C8216C08D819E81AF81B88568
:100150000196A11DB11D8D839E83AF83B8878981D0
:100160009A81AB81BC810196A11DB11D89839A83BF
:10017000AB83BC8389819A81AB81BC8181347DE072
:10018000970773E0A70770E0B707F0F23695279559
:10019000440F551F842F820F8BBB6F5F633079F63E
:0601A00093CFF894FFCF9D
:00000001FF
