:100000000C9446000C9465000C9465000C946500FB
:100010000C9465000C9465000C9465000C946500CC
:100020000C9465000C9465000C9465000C946500BC
:100030000C9465000C9465000C9465000C946500AC
:100040000C9467000C9465000C9465000C9465009A
:100050000C9465000C9465000C9465000C9465008C
:100060000C9465000C9465000C9465000C9465007C
:100070000C9465000C9465000C9465000C9465006C
:100080000C9465000C9465000C94650011241FBE4F
:10009000CFEFD0E1DEBFCDBF11E0A0E0B1E0E8EBF3
:1000A000F2E000E00BBF02C007900D92A431B1074F
:1000B000D9F711E0A4E1B1E001C01D92AA31B10766
:1000C000E1F70E94A1000C945A010C9400001F92C9
:1000D0000F920FB60F9211242F938F939F93AF938C
:1000E000BF9383E882BF8091180190911901019616
:1000F000909319018093180123E0883E9207B9F488
:100100008091140190911501A0911601B0911701F1
:100110000196A11DB11D8093140190931501A09328
:100120001601B09317011092190110921801BF9196
:10013000AF919F918F912F910F900FBE0F901F90B5
:1001400018952F923F924F925F926F927F928F926B
:100150009F92AF92BF92CF92DF92EF92FF920F9356
:100160001F938FEF84BB8FE08093640083E882BF8E
:1001700081E087BF789485E083BFBCE3EB2EF12C50
:10018000012D112DAAE0AA2EB12CC12CD12C552461
:100190005394F2E04F2EE4E03E2E78E5672E72E0B5
:1001A000772E812C912C68E0262E6091140170919D
:1001B00015018091160190911701A80197010E94E5
:1001C0003801A60195010E943801660F771F605023
:1001D0007F4FFB01808185BB5092650060911401C7
:1001E000709115018091160190911701A801970156
:1001F0000E943801A60195010E943801220F331F89
:1002000020503F4FF901808185BB4092650060918D
:100210001401709115018091160190911701A801A8
:1002200097010E943801CA01B901A60195010E94F7
:100230003801660F771F60507F4FFB01808185BBBF
:100240003092650060911401709115018091160142
:1002500090911701A40193010E943801220F331FCE
:1002600020503F4FF901808185BB209265009DCFD2
:10027000A1E21A2EAA1BBB1BFD010DC0AA1FBB1FAA
:10028000EE1FFF1FA217B307E407F50720F0A21B1C
:10029000B30BE40BF50B661F771F881F991F1A9489
:1002A00069F760957095809590959B01AC01BD01B3
:0802B000CF010895F894FFCF7F
:1002B8003F0006005B004F0066006D007D002700D0
:0402C8007F0067004C
:00000001FF
