:100000000C9446000C9450000C9450000C9450003A
:100010000C9450000C9450000C9450000C94500020
:100020000C9450000C9450000C9450000C94500010
:100030000C9450000C9450000C9450000C94500000
:100040000C9450000C9450000C9450000C945000F0
:100050000C9450000C9450000C9450000C945000E0
:100060000C9450000C9450000C9450000C945000D0
:100070000C9450000C9450000C9450000C945000C0
:100080000C9450000C9450000C94500011241FBE8E
:10009000CFEFD0E1DEBFCDBF0E9452000C949400A0
:1000A0000C940000DF93CF93CDB7DEB728970FB63F
:1000B000F894DEBF0FBECDBF8FEF8ABB19821A82C4
:1000C0001B821C821D821E821F82188638E020E857
:1000D0002BBB19821A821B821C8216C08D819E81C5
:1000E000AF81B8850196A11DB11D8D839E83AF831D
:1000F000B88789819A81AB81BC810196A11DB11D10
:1001000089839A83AB83BC8389819A81AB81BC81CB
:1001100081324EE4940740E0A40740E0B407F0F2D7
:0C01200026953150A9F6CACFF894FFCF05
:00000001FF
