:100000000C9446000C9465000C9465000C946500FB
:100010000C9465000C94D1030C94F6030C946500C9
:100020000C9465000C9465000C9465000C946500BC
:100030000C9465000C9465000C9465000C946500AC
:100040000C9465000C9465000C9465000C9465009C
:100050000C9465000C9465000C9465000C9465008C
:100060000C9465000C9465000C9465000C9465007C
:100070000C9465000C9465000C9465000C9465006C
:100080000C9465000C9465000C94650011241FBE4F
:10009000CFEFD0E1DEBFCDBF11E0A0E0B1E0E4E9F9
:1000A000F8E000E00BBF02C007900D92A631B10747
:1000B000D9F711E0A6E1B1E001C01D92AA32B10763
:1000C000E1F70E946C020C9448040C9400002F92FB
:1000D0003F924F925F926F927F928F929F92AF92D8
:1000E000BF92CF92DF92EF92FF920F931F93F8EEA1
:1000F000AF2EF3E0BF2EC12CD12CE4E66E2E712C76
:10010000812C912C7AE0E72EF12C012D112D552414
:10011000539462E0462E54E0352E48E0242E809120
:10012000220190912301A0912401B0912501009713
:10013000A105B10509F45EC160912201709123010E
:100140008091240190912501A60195010E94260429
:1001500030931D0120931C016091220170912301B5
:100160008091240190912501A40193010E9426040D
:10017000CA01B901A80197010E94260470932701C2
:1001800060932601609122017091230180912401E6
:1001900090912501A80197010E942604CA01B90186
:1001A000A80197010E94260470931701609316011D
:1001B0006091220170912301809124019091250189
:1001C000A80197010E9426047093290160932801D9
:1001D00050926500660F771F60507F4FFB01808152
:1001E00085BB109218011092190110921A011092F9
:1001F0001B0113C08091180190911901A0911A015F
:10020000B0911B010196A11DB11D8093180190931F
:100210001901A0931A01B0931B01809118019091CC
:100220001901A0911A01B0911B01893C9105A1050A
:10023000B10500F340926500E0911601F0911701BD
:10024000EE0FFF1FE050FF4F808185BB1092180119
:100250001092190110921A0110921B0113C0809183
:10026000180190911901A0911A01B0911B010196FA
:10027000A11DB11D8093180190931901A0931A013B
:10028000B0931B018091180190911901A0911A015E
:10029000B0911B01893C9105A105B10500F3309295
:1002A0006500E0912601F0912701EE0FFF1FE0505D
:1002B000FF4F808185BB1092180110921901109296
:1002C0001A0110921B0113C080911801909119011D
:1002D000A0911A01B0911B010196A11DB11D80933F
:1002E000180190931901A0931A01B0931B018091FA
:1002F000180190911901A0911A01B0911B01893C3C
:100300009105A105B10500F320926500E0911C0163
:10031000F0911D01EE0FFF1FE050FF4F808185BB64
:10032000109218011092190110921A0110921B01DB
:1003300013C08091180190911901A0911A01B091F8
:100340001B010196A11DB11D809318019093190105
:10035000A0931A01B0931B0180911801909119018B
:10036000A0911A01B0911B01893C9105A105B1052D
:1003700000F38091220190912301A0912401B0917A
:1003800025010197A109B1098093220190932301CE
:10039000A0932401B0932501109218011092190125
:1003A00010921A0110921B0113C0809118019091B4
:1003B0001901A0911A01B0911B010196A11DB11D57
:1003C0008093180190931901A0931A01B0931B0117
:1003D0008091180190911901A0911A01B0911B010F
:1003E000893EF3E09F07F0E0AF07F0E0BF0708F0B9
:1003F00096CEDBCF23E030E04FEF10921801109241
:10040000190110921A0110921B0113C0809118015A
:1004100090911901A0911A01B0911B010196A11DA3
:10042000B11D8093180190931901A0931A01B09304
:100430001B018091180190911901A0911A01B091AE
:100440001B01813251EA950757E0A50750E0B50737
:10045000E8F248BB109218011092190110921A018B
:1004600010921B0113C08091180190911901A09165
:100470001A01B0911B010196A11DB11D80931801B5
:1004800090931901A0931A01B0931B018091180158
:1004900090911901A0911A01B0911B01813AE6E8EF
:1004A0009E07E1E0AE07E0E0BE07E8F218BA21508F
:1004B000304009F0A2CF1F910F91FF90EF90DF9095
:1004C000CF90BF90AF909F908F907F906F905F90F4
:1004D0004F903F902F9008952F923F924F925F92AE
:1004E0006F927F928F929F92AF92BF92CF92DF9244
:1004F000EF92FF920F931F938FEF84BB8091640064
:100500008F608093640080E187BB10926A008AE06C
:100510008ABF80E389BF789480ED97E0A0E0B0E0E7
:100520008093220190932301A0932401B09325018D
:100530008FE08093650078EEA72E73E0B72EC12C74
:10054000D12C64E6662E712C812C912C5AE0E52E7C
:10055000F12C012D112D5524539442E0442E34E00A
:10056000332E28E0222E6091220170912301809188
:10057000240190912501A60195010E942604309343
:100580001D0120931C016091220170912301809133
:10059000240190912501A40193010E942604CA011F
:1005A000B901A80197010E94260470932701609366
:1005B0002601609122017091230180912401909184
:1005C0002501A80197010E942604CA01B901A801CA
:1005D00097010E94260470931701609316016091A1
:1005E0002201709123018091240190912501A8019D
:1005F00097010E942604709329016093280150926C
:100600006500660F771F60507F4FFB01808185BBBF
:10061000109218011092190110921A0110921B01E8
:1006200013C08091180190911901A0911A01B09105
:100630001B010196A11DB11D809318019093190112
:10064000A0931A01B0931B01809118019091190198
:10065000A0911A01B0911B01893C9105A105B1053A
:1006600000F340926500E0911601F0911701EE0F42
:10067000FF1FE050FF4F808185BB10921801109240
:10068000190110921A0110921B0113C080911801D8
:1006900090911901A0911A01B0911B010196A11D21
:1006A000B11D8093180190931901A0931A01B09382
:1006B0001B018091180190911901A0911A01B0912C
:1006C0001B01893C9105A105B10500F3309265003D
:1006D000E0912601F0912701EE0FFF1FE050FF4F40
:1006E000808185BB109218011092190110921A0195
:1006F00010921B0113C08091180190911901A091D3
:100700001A01B0911B010196A11DB11D8093180122
:1007100090931901A0931A01B0931B0180911801C5
:1007200090911901A0911A01B0911B01893C91058A
:10073000A105B10500F320926500E0911C01F09144
:100740001D01EE0FFF1FE050FF4F808185BB10920F
:1007500018011092190110921A0110921B0113C076
:100760008091180190911901A0911A01B0911B017B
:100770000196A11DB11D8093180190931901A093BA
:100780001A01B0931B018091180190911901A09159
:100790001A01B0911B01893C9105A105B10500F337
:1007A000E2CE1F920F920FB60F9211248F939F9358
:1007B000AF93BF938091220190912301A0912401D6
:1007C000B09125010196A11DB11D80932201909346
:1007D0002301A0932401B0932501BF91AF919F9174
:1007E0008F910F900FBE0F901F9018951F920F9230
:1007F0000FB60F920BB60F9211242F933F934F9386
:100800005F936F937F938F939F93AF93BF93EF9378
:10081000FF938091220190912301A0912401B09136
:1008200025010E946700FF91EF91BF91AF919F91C9
:100830008F917F916F915F914F913F912F910F9089
:100840000BBE0F900FBE0F901F901895A1E21A2EAD
:10085000AA1BBB1BFD010DC0AA1FBB1FEE1FFF1F64
:10086000A217B307E407F50720F0A21BB30BE40BB4
:10087000F50B661F771F881F991F1A9469F76095FB
:100880007095809590959B01AC01BD01CF010895B5
:04089000F894FFCF0A
:100894003F0006005B004F0066006D007D0007000E
:0608A4007F006F003F0021
:00000001FF
