:100000000C9446000C9450000C9450000C9450003A
:100010000C9450000C9450000C9450000C94500020
:100020000C9450000C9450000C9450000C94500010
:100030000C9450000C9450000C9450000C94500000
:100040000C9450000C9450000C9450000C945000F0
:100050000C9450000C9450000C9450000C945000E0
:100060000C9450000C9450000C9450000C945000D0
:100070000C9450000C9450000C9450000C945000C0
:100080000C9450000C9450000C94500011241FBE8E
:10009000CFEFD0E1DEBFCDBF0E9452000C949B0099
:1000A0000C940000DF93CF93CDB7DEB728970FB63F
:1000B000F894DEBF0FBECDBF9FEF94BB809164006C
:1000C0008F608093640095BB81E08093650021E0A0
:1000D00019821A821B821C8216C08D819E81AF817B
:1000E000B8850196A11DB11D8D839E83AF83B8870E
:1000F00089819A81AB81BC810196A11DB11D898343
:100100009A83AB83BC8389819A81AB81BC81813422
:100110003DE0930733E0A30730E0B307F0F28091AE
:100120006500880F8093650080916500803181F6BD
:0A01300020936500CDCFF894FFCFB7
:00000001FF
